:0400000049EF03F0D1
:1000080000C01FF001C01EF002C01DF003C01CF0AC
:1000180004C01BF005C01AF008C019F009C018F098
:100028000BC017F00CC016F00DC015F0CFCF82F042
:10003800000E0001836F82C001F0006A00C082F0E8
:1000480001C083F0CE500026000E012200C082F0CD
:1000580001C083F03C0E046E000E056E43D900C04B
:1000680082F001C083F0070E046E000E056E62D99F
:1000780000C082F001C083F0CF6ACE6A0B0ED76E43
:10008800DC0ED66EF2941FC000F01EC001F01DC039
:1000980002F01CC003F01BC004F01AC005F019C020
:1000A80008F018C009F017C00BF016C00CF015C006
:0400B8000DF0110036
:1000BC000F0E0C6E470E0D6E0D2EFED70C2EFCD7B0
:0600CC000000000012001C
:0A00D200210E0D6E0D2EFED7120058
:0600DC000000000012000C
:1000E200086A096A100E0C6E01340836093604508B
:1000F200085E0550D8A0053C095ED8B007D0045070
:1001020008260550D8B0053C0926D890003601369D
:060112000C2EEAD71200DA
:10011800000195BF02D0819601D0818695BD02D09D
:10012800819401D0818495BB02D0819201D08182D3
:1001380095B902D0819001D0818072B102D08188B6
:1001480001D08198818AC6DF819A95B702D08196BD
:1001580001D0818695B502D0819401D0818495B370
:1001680002D0819201D0818295B102D0819001D0D4
:10017800818072B102D0818801D08198818AAADFFA
:0E018800819A72A102D096DF01D09FDF120093
:100196000001926B050E925D0AE292519025E16E86
:1001A600000E9121E26E200EE66E922BF3D792514D
:1001B6009025E16E000E9121E26EE66A9207925159
:1001C6009025936F000E9121946F0A0E046E000E17
:1001D600056E8EC000F08FC001F080DF08C000F011
:1001E60009C001F0300E002693C0E1FF94C0E2FF83
:1001F60000C0E6FF0A0E046E000E056E8EC000F00B
:100206008FC001F06BDF00C08EF001C08FF0000ED2
:10021600011802E1000E001801E102D09207CFD7C3
:020226001200C4
:100228000134083609360450085E0550D8A0053C4C
:10023800095E003601360F0E0C6E01340836093699
:10024800045000A006D0085E0550D8A0053C095E01
:1002580005D008260550D8B0053C092600360136D9
:100268000C2EEBD700B006D0045008260550D8B0A5
:08027800053C092600001200FC
:100280008EC004F08FC005F004C002F005C003F07A
:10029000044A052A90C000F091C001F00001904B83
:1002A000912B00C0E9FF01C0EAFF02C0E1FF03C0DB
:1002B000E2FFEECFE6FF02C0E9FF03C0EAFFEE5225
:0E02C00001E0E2D78EC000F08FC001F0120006
:0E02CE00000172918EC095F020DF7281120047
:1002DC000900F5CFE6FF0006FBE10106F9E112008B
:1002EC000B6A0A6A096A00500402F4CF09F0F3CFD2
:1002FC0008F001500502F4CF0BF0F3CF0AF00050D8
:10030C000502F3500926F4500A22E86A0B22015028
:10031C000402F3500926F4500A22E86A0B2208C0A2
:10032C0000F009C001F00AC002F00BC003F012008B
:10033C000450000A08E10550000A05E1FF0E006EAA
:10034C007F0E016E57D00D6A096A086A01500010C1
:10035C00D8B4000C015005180A6E0ABE0D1E0B6AAB
:10036C0005AE05D0041E051E042AD8B4052A01AE1C
:10037C0005D0001E011E002AD8B4012A0150051018
:10038C000A6E0ABE10D04ADF0BB020D00DAE000CA6
:10039C00001E011E002AD8B4012A081E091E082AB4
:1003AC00D8B4092A000C05AE0DD001BE07D00150FF
:1003BC00096E0050086E016A006AE8D7016A006A8B
:1003CC00002A000C011E001E0B2ADDD7082AD8B407
:1003DC00092A0450085CD8A4D9D70550095CD8A4C4
:1003EC00D5D7096A086A002AD8B4012A01AECED73B
:0603FC000000FF0C1200DE
:10040200939A93989390939293949396819A8198C6
:10041200819681948192819050DE4FDE4EDE818200
:100422008180818A5ADE819A48DE818A56DE819AEB
:1004320044DE818A52DE819A40DE8190818A4DDEDD
:10044200819A3BDE818A49DE819A81928186818A04
:1004520044DE819A32DE81968180818A3EDE819AF3
:100462008190818A3ADE819A28DE818A36DE819AFB
:100472008180818A32DE819A20DE8190818A2DDE1E
:10048200819A8186818481828180818A26DE819A15
:0804920014DE0001728112006A
:10049A0000018A6B8B6B84C08CF085C08DF0800E56
:1004AA008519006E800E005C02E1000E845D0BE28D
:1004BA00010E8A6F000E8B6F845100088C6F85C005
:1004CA008DF0000E8D578CC08EF08DC08FF086C0D7
:1004DA0090F087C091F05ADE060E886F000E896F81
:1004EA00000E006E8951005C02E18851000819E291
:1004FA0088518625E16E89518721E26E010E885D59
:10050A00006E000E8959016E00508625E96E015071
:10051A008721EA6EEECFE6FF010E885F000E895B47
:10052A00DFD786C0E1FF87C0E2FF200EE66E8A5160
:10053A008B111AE0886B896B88518625E96E89517F
:10054A008721EA6EEE50200A03E1884B892BF4D703
:10055A00010E885F000E895B88518625E16E8951FC
:0A056A008721E26E2D0EE66E1200EE
:1005740010D0800E0001846F1AD0C00E846F17D083
:10058400940E846F14D0D40E846F11D0800E846FB7
:100594000ED000018451010AECE08451020AEDE01E
:1005A4008451030AEDE08451040AEDE0EFD7850598
:1005B400006E8451002600C084F000C095F0AADDCE
:1005C4007291886B88518625E96E000E8721EA6E48
:1005D400EE520BE088518625E96E000E8721EA6E03
:0E05E400EECF8EF072DE882BEDD77281120002
:1005F20080A00DD0BE6ABD9ABD98630E00018E6FB9
:10060200000E8F6F3E0E906F000E916F38DE80A24B
:100612000ED000013F0EBE6EBD8ABD88630E8E6F86
:10062200000E8F6F340E906F000E916F28DE80A443
:100632000ED00001800EBE6EBD9ABD98630E8E6F05
:10064200000E8F6F200E906F000E916F18DE80A645
:100652000ED00001C00EBE6EBD9ABD98630E8E6FA5
:10066200000E8F6F2A0E906F000E916F08DE80A829
:100672000ED00001FF0EBE6EBD8ABD88630E8E6F66
:10068200000E8F6F470E906F000E916FF8DD120013
:10069200D9EC03F00F0EC16EB3DE0C0E956F3BDD8D
:1006A200826B836B010E956F36DD94949480FF0EFE
:1006B200CB6EBE6A0C0EBD6E010ECA6EFF0E926E3E
:1006C200CA84CE6ACF6A830ECD6E0B0ED76EDC0E55
:1006D200D66EA00EF26E840ED56E630E8E6F000E75
:1006E2008F6F590E906F000E916FC9DD81DF010E81
:1006F2000001956F10DD730E8E6F000E8F6F530E1B
:10070200906F000E916FBBDD020E846F010E856F3C
:10071200730E866F000E876F2CDF82C084F083C059
:1007220085F0730E866F000E876FB6DE010E846F42
:10073200010E856F630E866F000E876F1ADF020E41
:10074200846F050E856F730E866F000E876F11DF43
:10075200030E0B6E080E0C6E770E0D6E0D2EFED76D
:0C0762000C2EFCD70B2EFAD7C1D7FFD706
:1007B20010EE20F0430E006E010E016E6E0EF66E0C
:0E07C200070EF76E000EF86E6EEC01F01200DE
:0A076E0050574D3A203530250000A9
:0A07780050574D3A20373525000098
:0A07820050574D3A20323525000093
:09078C0050574D3A2030250000C1
:0C0795002050574D3A2031303025000034
:0607A1002052504D3A0009
:0A07A7002050574D3A203025000085
:020000040030CA
:0E000000000C1F1EFF8181FF0FC00FE00F409C
:00000001FF
