:04000000EEEF01F02E
:1000080000C015F0CFCF16F0000E176E16C017F00F
:10001800166ACE501626000E1722CF6ACE6A0B0E2D
:0C002800D76EDC0ED66E15C000F0110083
:06003400000000001200B4
:10003A000F0E0C6E470E0D6E0D2EFED70C2EFCD732
:06004A000000000012009E
:0A005000210E0D6E0D2EFED71200DA
:10005A00086A096A100E0C6E013408360936045013
:10006A00085E0550D8A0053C095ED8B007D00450F8
:10007A0008260550D8B0053C0926D8900036013626
:06008A000C2EEAD7120063
:1000900039BE02D0819601D0818639BC02D08194CC
:1000A00001D0818439BA02D0819201D0818239B8DD
:1000B00002D0819001D0818027B002D0818801D008
:1000C0008198818AB7DF819A39B602D0819601D0B2
:1000D000818639B402D0819401D0818439B202D0B2
:1000E000819201D0818239B002D0819001D081808B
:1000F00027B002D0818801D08198818A9BDF819AC4
:0C01000027A002D09ADF01D0A3DF12007C
:0C010C00279032C039F0BEDF27801200BF
:10011800366A050E365C0AE236503424E16E000E6B
:100128003520E26E200EE66E362AF3D73650342498
:10013800E16E000E3520E26EE66A3606365034244B
:10014800376E000E3520386E0A0E046E000E056EEE
:1001580032C000F033C001F07CDF08C000F009C0F5
:1001680001F0300E002637C0E1FF38C0E2FF00C0C2
:10017800E6FF0A0E046E000E056E32C000F033C0B2
:1001880001F067DF00C032F001C033F0000E011843
:1001980002E1000E001801E102D03606CFD71200A6
:1001A800939A93989390939293949396819A819823
:1001B80081968194819281903CDF3BDF3ADF818296
:1001C8008180818A33DF819A34DF818A2FDF819AA7
:1001D80030DF818A2BDF819A2CDF8190818A26DFAC
:1001E800819A27DF818A22DF819A81928186818A9A
:1001F8001DDF819A1EDF81968180818A17DF819AAF
:100208008190818A13DF819A14DF818A0FDF819AB6
:100218008180818A0BDF819A0CDF8190818A06DFD9
:10022800819A8186818481828180818AFFDE819A98
:0602380000DF2780120028
:10023E000900F5CFE6FF0006FBE10106F9E1120029
:10024E0080A003D0BE6ABD9ABD9880A204D03F0E96
:10025E00BE6EBD8ABD8880A404D0800EBE6EBD9ACF
:10026E00BD9880A604D0C00EBE6EBD9ABD9880A863
:0C027E0004D0FF0EBE6EBD8ABD881200C9
:10028A000FD0800E286E19D0C00E286E16D0940E8C
:10029A00286E13D0D40E286E10D0800E286E0DD082
:1002AA002850010AEEE02850020AEEE02850030A1C
:1002BA00EEE02850040AEEE0F0D72904006E285038
:1002CA00002600C028F000C039F0DDDE27902C6A35
:1002DA002C502A24E96E000E2B20EA6EEE520BE017
:1002EA002C502A24E96E000E2B20EA6EEECF32F053
:0A02FA0008DF2C2AEDD72780120040
:100304002E6A2F6A28C030F029C031F0800E2918D7
:10031400006E800E005C02E1000E285C0BE2010E10
:100324002E6E000E2F6E28500008306E29C031F05A
:10033400000E315630C032F031C033F02AC034F0F0
:100344002BC035F0E7DE060E2C6E000E2D6E000E6F
:10035400006E2D50005C02E12C50000819E22C5074
:100364002A24E16E2D502B20E26E010E2C5C006ECF
:10037400000E2D58016E00502A24E96E01502B20E6
:10038400EA6EEECFE6FF010E2C5E000E2D5ADFD78B
:100394002AC0E1FF2BC0E2FF200EE66E2E502F1084
:1003A4001AE02C6A2D6A2C502A24E96E2D502B2039
:1003B400EA6EEE50200A03E12C4A2D2AF4D7010EEE
:1003C4002C5E000E2D5A2C502A24E16E2D502B2029
:0803D400E26E2D0EE66E120030
:1003DC00640E166E176AE2DE0C0E396E53DE0C0ECE
:1003EC00396E50DE010E396E4DDE94949480FF0E02
:1003FC00CB6EBE6A0C0EBD6E010ECA6EFF0E926EF7
:10040C000F0EC16ECA84870ECD6E040ED56EE00E33
:10041C00F26EF184D5800B0ED76EDC0ED66E11DF2A
:10042C00010E396E2FDE16C028F017C029F0180EF9
:10043C002A6E000E2B6E60DF010E286E010E296EE7
:10044C00180E2A6E000E2B6E1ADF040E0B6E0C0E9D
:10045C000C6E330E0D6E0D2EFED70C2EFCD70B2E04
:0A046C00FAD700000000DBD7FFD72D
:020000040030CA
:0E000000000C1F1EFF8381FF0FC00FE00F409A
:00000001FF
