:0400000014EF02F007
:1000080000C015F0CFCF23F0000E246E23C024F0DB
:10001800236ACE502326000E2422CF6ACE6A0B0E06
:0C002800D76EDC0ED66E15C000F0110083
:06003400000000001200B4
:10003A000F0E0C6E470E0D6E0D2EFED70C2EFCD732
:06004A000000000012009E
:0A005000210E0D6E0D2EFED71200DA
:10005A00086A096A100E0C6E013408360936045013
:10006A00085E0550D8A0053C095ED8B007D00450F8
:10007A0008260550D8B0053C0926D8900036013626
:06008A000C2EEAD7120063
:1000900046BE02D0819601D0818646BC02D08194B2
:1000A00001D0818446BA02D0819201D0818246B8C3
:1000B00002D0819001D0818034B002D0818801D0FB
:1000C0008198818AB7DF819A46B602D0819601D0A5
:1000D000818646B402D0819401D0818446B202D098
:1000E000819201D0818246B002D0819001D081807E
:1000F00034B002D0818801D08198818A9BDF819AB7
:0C01000034A002D09ADF01D0A3DF12006F
:0C010C0034903FC046F0BEDF348012008B
:10011800436A050E435C0AE243504124E16E000E37
:100128004220E26E200EE66E432AF3D74350412464
:10013800E16E000E4220E26EE66A43064350412417
:10014800446E000E4220456E0A0E046E000E056EC7
:100158003FC000F040C001F07CDF08C000F009C0DB
:1001680001F0300E002644C0E1FF45C0E2FF00C0A8
:10017800E6FF0A0E046E000E056E3FC000F040C098
:1001880001F067DF00C03FF001C040F0000E011829
:1001980002E1000E001801E102D04306CFD7120099
:1001A80080A003D0BE6ABD9ABD9880A204D03F0E3D
:1001B800BE6EBD8ABD8880A404D0800EBE6EBD9A76
:1001C800BD9880A604D0C00EBE6EBD9ABD9880A80A
:0C01D80004D0FF0EBE6EBD8ABD88120070
:1001E4000900F5CFE6FF0006FBE10106F9E1120084
:1001F400939A93989390939293949396819A8198D7
:10020400819681948192819016DF15DF14DF8182BB
:100214008180818A0DDF819A0EDF818A09DF819ACC
:100224000ADF818A05DF819A06DF8190818A00DFF7
:10023400819A01DF818AFCDE819A81928186818A9A
:10024400F7DE819AF8DE81968180818AF1DE819AD7
:100254008190818AEDDE819AEEDE818AE9DE819ADF
:100264008180818AE5DE819AE6DE8190818AE0DE02
:10027400819A8186818481828180818AD9DE819A72
:06028400DADE34801200F6
:10028A000FD0800E356E19D0C00E356E16D0940E72
:10029A00356E13D0D40E356E10D0800E356E0DD05B
:1002AA003550010AEEE03550020AEEE03550030AF5
:1002BA00EEE03550040AEEE0F0D73604006E355011
:1002CA00002600C035F000C046F0DDDE3490396A01
:1002DA0039503724E96E000E3820EA6EEE520BE0F0
:1002EA0039503724E96E000E3820EA6EEECF3FF01F
:0A02FA0008DF392AEDD73480120026
:1003040035C004F036C005F004C002F005C003F0A7
:10031400044A052A37C000F038C001F0374A382AA9
:1003240000C0E9FF01C0EAFF02C0E1FF03C0E2FF31
:10033400EECFE6FF02C0E9FF03C0EAFFEE5201E0A0
:0C034400E3D735C000F036C001F0120015
:100350003B6A3C6A35C03DF036C03EF0800E361830
:10036000006E800E005C02E1000E355C0BE2010EB7
:100370003B6E000E3C6E355000083D6E36C03EF0C0
:10038000000E3E563DC03FF03EC040F037C041F049
:1003900038C042F0C1DE060E396E000E3A6E000E15
:1003A000006E3A50005C02E13950000819E2395001
:1003B0003724E16E3A503820E26E010E395C006E4F
:1003C000000E3A58016E00503724E96E0150382073
:1003D000EA6EEECFE6FF010E395E000E3A5ADFD725
:1003E00037C0E1FF38C0E2FF200EE66E3B503C1004
:1003F0001AE0396A3A6A39503724E96E3A5038209F
:10040000EA6EEE50200A03E1394A3A2AF4D7010E87
:10041000395E000E3A5A39503724E16E3A5038208E
:08042000E26E2D0EE66E1200E3
:10042800610E166E720E176E720E186E6F0E196EC2
:100438007A0E1A6E1B6A1C6A740E1D6E650E1E6E8D
:10044800730E1F6E740E206E650E216E226A640E86
:10045800236E246ACBDE010E466E16DE0C0E466E47
:1004680013DE94949480FF0ECB6EBE6A0C0EBD6EA4
:10047800010ECA6EFF0E926E0F0EC16ECA84870EF1
:10048800CD6E040ED56EE00EF26EF184D5800B0EA3
:10049800D76EDC0ED66E84DE010E466EF5DD23C007
:1004A80035F024C036F0250E376E000E386E4CDF5E
:1004B800250E356E000E366E160E376E000E386E2F
:1004C8001DDF010E356E010E366E1D0E376E000EE5
:1004D800386ED7DE040E0B6E0C0E0C6E330E0D6EDE
:1004E8000D2EFED70C2EFCD70B2EFAD700000000DD
:0404F800D2D7FFD781
:020000040030CA
:0E000000000C1F1EFF8381FF0FC00FE00F409A
:00000001FF
